:020000021000EC
:10F800000C944AFC0C9469FC0C9469FC0C9469FC03
:10F810000C9469FC0C9469FC0C9469FC0C9469FCD4
:10F820000C9469FC0C9469FC0C9469FC0C9469FCC4
:10F830000C9469FC0C9469FC0C9469FC0C9469FCB4
:10F840000C9469FC0C9469FC0C9469FC0C9469FCA4
:10F850000C9469FC0C9469FC0C9469FC0C9469FC94
:10F860000C9469FC0C9469FC0C9469FC0C9469FC84
:10F870000C9469FC0C9469FC0C9469FC0C9469FC74
:10F880000C9469FC0C9469FC0C9469FC0C9469FC64
:10F890000C9469FC11241FBECFEFD0E1DEBFCDBFB9
:10F8A00011E0A0E0B1E0EAEEFFEF01E00BBF02C023
:10F8B00007900D92A230B107D9F712E0A2E0B1E0B3
:10F8C00001C01D92AD30B107E1F70E9486FD0C9496
:10F8D000F3FF0C9400FC982F80910201813019F005
:10F8E000823041F008958091C00085FFFCCF909355
:10F8F000C60008958091C80085FFFCCF9093CE008C
:10F9000008951F93982F9595959595959595905D4C
:10F910008F708A3054F4182F105D892F0E946BFC71
:10F92000812F0E946BFC1F910895182F195A892F5F
:10F930000E946BFC812F0E946BFC1F910895EF9237
:10F94000FF920F931F9380910201813069F1823001
:10F9500031F080E01F910F91FF90EF900895EE2419
:10F96000FF2487018091C80087FD17C00894E11C1F
:10F97000F11C011D111D81E4E81682E4F8068FE0F8
:10F98000080780E0180770F3E0910401F091050189
:10F9900009958091C80087FFE9CF8091CE001F9123
:10F9A0000F91FF90EF900895EE24FF24870180913E
:10F9B000C00087FD17C00894E11CF11C011D111D3A
:10F9C00081E4E81682E4F8068FE0080780E0180773
:10F9D00070F3E0910401F091050109958091C00058
:10F9E00087FFE9CF8091C6001F910F91FF90EF90A4
:10F9F00008951F930E949FFC182F0E946BFC1136E4
:10FA000034F410330CF01053812F1F9108951755C3
:10FA1000812F1F9108951F930E94F9FC182F0E94B7
:10FA2000F9FC1295107F810F1F910895982F209156
:10FA30000201992339F0213031F0223061F09150E8
:10FA40009923C9F708958091C00087FFFCCF80916A
:10FA5000C6009150F5CF8091C80087FFFCCF809100
:10FA6000CE009150EDCF1F93182F0E949FFC803243
:10FA700081F0809103018F5F80930301853011F045
:10FA80001F910895E0910401F091050109951F91DE
:10FA9000089584E10E946BFC812F0E946BFC80E141
:10FAA0000E946BFC1F9108950E949FFC803271F0B0
:10FAB000809103018F5F80930301853009F00895E1
:10FAC000E0910401F09105010995089584E10E94F7
:10FAD0006BFC80E10E946BFC089540E951E08823B3
:10FAE000A1F0179A28EE33E0FA013197F1F721508F
:10FAF0003040D1F7179828EE33E0FA013197F1F74B
:10FB000021503040D1F7815061F70895FF920F9353
:10FB10001F93CF93DF930000879886988F9A8E9AD1
:10FB200081E08093020180E18093C4001092C500BF
:10FB30001092C00086E08093C20088E18093C100EB
:10FB40006898709A0F9A82E00E946DFDFF24F394EA
:10FB50000E949FFC8033B1F18133B9F1803409F404
:10FB600054C0813409F45AC0823409F469C0853420
:10FB700009F46CC0803531F1823521F1813511F104
:10FB8000853509F469C0863509F471C0843609F4F5
:10FB90007AC0843709F4E4C0853709F448C1863750
:10FBA00009F44AC0809103018F5F8093030185307F
:10FBB00079F6E0910401F091050109950E949FFCFE
:10FBC000803351F60E9454FDC3CF0E949FFC8032C7
:10FBD00049F784E10E946BFC81E40E946BFC86E59E
:10FBE0000E946BFC82E50E946BFC80E20E946BFC31
:10FBF00089E40E946BFC83E50E946BFC80E50E9417
:10FC00006BFC80E10E946BFCA3CF0E949FFC8638B6
:10FC1000C8F20E949FFC0E9454FD9ACF0E949FFC54
:10FC2000803809F499C0813809F4FDC0823809F49C
:10FC300013C1883909F48CC080E00E9433FD88CF5D
:10FC400084E10E9416FD0E9454FD82CF85E00E944F
:10FC500016FD0E9454FD7CCF0E949FFC80930601FC
:10FC60000E949FFC809307010E9454FD71CF0E9467
:10FC70009FFC803309F404C183E00E9416FD80E0FC
:10FC80000E9433FD65CF0E949FFC809309020E9471
:10FC90009FFC8093080280910C028E7F80930C025F
:10FCA0000E949FFC853409F4FCC080910802909169
:10FCB0000902892B89F000E010E00E949FFCF80106
:10FCC000E85FFE4F80830F5F1F4F80910802909185
:10FCD00009020817190788F30E949FFC803209F077
:10FCE00061CF80910C0280FFEEC02091060130911F
:10FCF0000701220F331F30930701209306018091E3
:10FD0000080290910902892BE1F000E010E0F8016F
:10FD1000E85FFE4FC90160810E94E6FF2091060165
:10FD2000309107012F5F3F4F309307012093060169
:10FD30000F5F1F4F80910802909109020817190761
:10FD400030F384E10E946BFC80E10E946BFC00CFE9
:10FD500083E00E9433FDFCCE82E00E9433FDF8CEAA
:10FD60000E949FFC809309020E949FFC80930802DE
:10FD7000209106013091070137FD9FC080910C0250
:10FD80008D7F80930C02220F331F30930701209345
:10FD900006010E949FFC853409F489C080910C0201
:10FDA0008E7F80930C020E949FFC803209F0D0CE9F
:10FDB00084E10E946BFC8091080290910902892BDA
:10FDC00009F446C000E010E02091060130910701DF
:10FDD00017C0F90184910E946BFC209106013091BB
:10FDE00007012F5F3F4F30930701209306010F5FFC
:10FDF0001F4F80910802909109020817190740F5DA
:10FE000080910C0280FD2CC081FFE3CFC901A0E0EE
:10FE1000B0E080509040AF4FBF4FABBFFC01879127
:10FE20000E946BFCDACF81E00E9433FD91CE0E94EC
:10FE30009FFC803209F0B6CE84E10E946BFC8EE11B
:10FE40000E946BFC87E90E946BFC81E80E946BFCBE
:10FE500080E10E946BFC7CCE80E10E9433FD78CE75
:10FE6000C9010E94DEFF0E946BFC209106013091C7
:10FE700007012F5F3F4F3093070120930601B7CF53
:10FE80000E949FFC0E949FFC182F0E949FFC112340
:10FE900009F48CC0113009F48DC081E80E9433FD53
:10FEA00057CE80910C02816080930C02FECE80912F
:10FEB0000C02816080930C0276CF80910C028260EC
:10FEC00080930C0260CF809107018823880F880BF4
:10FED0008F2180930B028BBF8091060190910701C7
:10FEE000880F991F90930701809306018091080263
:10FEF00080FF09C0809108029091090201969093B9
:10FF0000090280930802F894F999FECF1127E09135
:10FF10000601F0910701C8E0D1E0809108029091BC
:10FF20000902103091F40091570001700130D9F3AB
:10FF300003E000935700E8950091570001700130ED
:10FF4000D9F301E100935700E895099019900091C9
:10FF5000570001700130D9F301E000935700E89594
:10FF60001395103898F01127009157000170013057
:10FF7000D9F305E000935700E89500915700017010
:10FF80000130D9F301E100935700E89532960297CA
:10FF900009F0C7CF103011F00296E5CF112484E1AB
:10FFA0000E946BFC80E10E946BFCD2CD8EE10E942E
:10FFB00033FDCECD87E90E9433FDCACDF999FECF3E
:10FFC00092BD81BDF89A992780B50895262FF99999
:10FFD000FECF92BD81BD20BD0FB6F894FA9AF99A72
:0AFFE0000FBE01960895F894FFCFBC
:02FFEA00800095
:040000031000F800F1
:00000001FF
