:020000021000EC
:10F000000C944AF80C9467F80C9467F80C9467F821
:10F010000C9467F80C9467F80C9467F80C9467F8F4
:10F020000C9467F80C9467F80C9467F80C9467F8E4
:10F030000C9467F80C9467F80C9467F80C9467F8D4
:10F040000C9467F80C9467F80C9467F80C9467F8C4
:10F050000C9467F80C9467F80C9467F80C9467F8B4
:10F060000C9467F80C9467F80C9467F80C9467F8A4
:10F070000C9467F80C9467F80C9467F80C9467F894
:10F080000C9467F80C9467F80C9467F80C9467F884
:10F090000C9467F811241FBECFEFD0E1DEBFCDBFC7
:10F0A00011E0A0E0B1E0E0E0F8EF01E00BBF02C04A
:10F0B00007900D92A230B107D9F712E0A2E0B1E0BB
:10F0C00001C01D92AD30B107E1F70C943AF90C94F0
:10F0D00000F8282F21502F3F61F0E0E0F0E0179A70
:10F0E000CF010197F1F71798CF010197F1F7215060
:10F0F000B0F70895EF92FF920F931F93EE24FF2431
:10F10000870180910501813051F0823049F180E022
:10F1100090E03FC0E0910201F091030109958091D8
:10F12000C00087FD12C00894E11CF11C011D111DD7
:10F1300081E4E81682E4F8068FE0080780E018070B
:10F1400048F78091C00087FFEECF8091C6009927D5
:10F1500087FD90951EC0E0910201F0910301099591
:10F160008091C80087FD12C00894E11CF11C011DAC
:10F17000111D81E4E81682E4F8068FE0080780E0BC
:10F18000180748F78091C80087FFEECF8091CE0026
:10F19000DECF1F910F91FF90EF900895982F8091EF
:10F1A0000501813019F0823041F008958091C0004E
:10F1B00085FFFCCF9093C60008958091C80085FF1D
:10F1C000FCCF9093CE0008950E947AF8803271F0BF
:10F1D000809104018F5F80930401853009F00895C8
:10F1E000E0910201F09103010995089584E10E94E4
:10F1F000CEF880E10E94CEF80895CF93C82F0E94E8
:10F200007AF8803241F0809104018F5F809304018D
:10F21000853081F40AC084E10E94CEF88C2F0E94D0
:10F22000CEF880E10E94CEF805C0E0910201F09195
:10F2300003010995CF910895982F91509F3F91F028
:10F240002091050105C0223071F091509F3F51F08F
:10F250002130C9F78091C0008823E4F78091C6006F
:10F260009150B0F708958091C8008823E4F7809109
:10F27000CE00EBCFCFEFD0E1DEBFCDBF000087984F
:10F2800086988F9A8E9A7F9944C291E09093050157
:10F29000E0E0F0E084918F3F19F0992309F43DC23A
:10F2A000992309F055C091E09093050180E1809386
:10F2B000C4001092C5001092C00086E08093C20086
:10F2C00088E18093C1006898709A0F9A892F8F5FA8
:10F2D0000E9469F80E947AF88033B9F1813309F409
:10F2E0004DC0803409F46BC0813409F471C082349C
:10F2F00009F483C0853409F486C0803531F1823544
:10F3000021F1813511F1853509F481C0863509F483
:10F3100089C0843609F490C0843709F4ECC085377D
:10F3200009F44EC1863709F460C0809104018F5FF3
:10F3300080930401853071F6E0910201F0910301A0
:10F3400009950E947AF8803349F60E94E4F8C2CF0A
:10F35000913009F4ABCF923009F0B7CF80E18093C0
:10F36000CC001092CD001092C80086E08093CA00B5
:10F3700088E18093C90052985A9AA7CF0E947AF8E0
:10F38000C82F803291F684E10E94CEF881E40E9479
:10F39000CEF886E50E94CEF882E50E94CEF88C2F4A
:10F3A0000E94CEF889E40E94CEF883E50E94CEF850
:10F3B00080E50E94CEF880E10E94CEF88BCF0E94BB
:10F3C0007AF8863810F20E947AF80E94E4F882CF28
:10F3D0000E947AF8803809F4ABC1813809F4ACC1D5
:10F3E000823809F4ADC1883921F080E00E94FDF82F
:10F3F00071CF83E00E94FDF86DCF84E10E941CF97B
:10F400000E94E4F867CF85E00E941CF9F9CF0E94C2
:10F410007AF8809306010E947AF8809307010E948F
:10F42000E4F858CF0E947AF8803309F4D9C083E019
:10F430000E941CF980E0DACF0E947AF880930902DA
:10F440000E947AF88093080280910C028E7F80934C
:10F450000C020E947AF8853409F4D3C000E010E071
:10F4600080910802909109021816190670F4C8E0FC
:10F47000D1E00E947AF889930F5F1F4F80910802B4
:10F480009091090208171907A0F30E947AF88032B8
:10F4900009F04BCF80910C0280FFC1C0A091060102
:10F4A000B0910701AA0FBB1FB0930701A0930601FB
:10F4B00000E010E0809108029091090218161906E8
:10F4C000C0F4E8E0F1E08191082E0E94F4FBA091E5
:10F4D0000601B09107011196B0930701A0930601B0
:10F4E0000F5F1F4F809108029091090208171907BA
:10F4F00050F384E15ECF0E947AF8809309020E9463
:10F500007AF880930802A0910601B0910701B7FD37
:10F5100082C080910C028D7F80930C02AA0FBB1FCA
:10F52000B0930701A09306010E947AF8853409F48C
:10F530006EC080910C028E7F80930C020E947AF83C
:10F54000803209F0C7CE84E10E94CEF800E010E0DE
:10F5500080910802909109021816190608F02BCF25
:10F56000A0910601B091070117C0FD0184910E948E
:10F57000CEF8A0910601B09107011196B093070152
:10F58000A09306010F5F1F4F80910802909109021E
:10F590000817190708F00FCF80910C0280FDD4C026
:10F5A000869580FFE2CF9D0144275527DA01C901E6
:10F5B00080509040AF4FBF4FABBFFC018791D7CF7A
:10F5C0000E947AF8803209F0B0CE84E10E94CEF831
:10F5D0008EE10E94CEF887E90E94CEF881E8E9CE5C
:10F5E0000E947AF80E947AF8C82F0E947AF8CC23F9
:10F5F00009F483C0C13009F484C081E80E94FDF899
:10F6000069CE80910C02816080930C0227CF80919B
:10F610000C02816091CF80910C0282607DCF80913D
:10F62000070187FD72C010920B0280910B028BBF05
:10F630008091060190910701880F991F909307010F
:10F64000809306018091080280FF09C08091080222
:10F650009091090201969093090280930802F89410
:10F66000F999FECF1127E0910601F0910701C8E05A
:10F67000D1E08091080290910902103091F400913C
:10F68000570001700130D9F303E000935700E8956B
:10F690000091570001700130D9F301E10093570048
:10F6A000E895099019900091570001700130D9F345
:10F6B00001E000935700E8951395103898F0112752
:10F6C0000091570001700130D9F305E00093570015
:10F6D000E8950091570001700130D9F301E10093E2
:10F6E0005700E8953296029709F0C7CF103011F015
:10F6F0000296E5CF112484E15CCE8EE10E94FDF8F4
:10F70000E9CD87E90E94FDF8E5CD81E080930B0209
:10F710008CCF7E990AC092E0B9CDE0910201F091C0
:10F720000301099590910501BBCD90910501B0CDE4
:10F7300082E00E94FDF8CECD81E00E94FDF8CACDA6
:10F7400080E10E94FDF8C6CD0E94ECFB802D0FCF1A
:10F75000CF930E947AF8C82F0E94CEF8C13614F0D9
:10F76000C75503C0C0330CF0C0538C2F992787FDB9
:10F770009095CF9108950F931F930E94A8FB082F97
:10F78000112707FD109502951295107F1027007F15
:10F7900010270E94A8FB800F992787FD90951F9145
:10F7A0000F910895CF93C82F85958595859585955B
:10F7B0008A3034F0895ACF70CA3034F0C95A05C043
:10F7C000805DCF70CA30D4F7C05D0E94CEF88C2F18
:10F7D0000E94CEF8CF910895F999FECFB2BDA1BD98
:10F7E000F89A119600B40895F999FECFB2BDA1BD63
:10F7F00000BC11960FB6F894FA9AF99A0FBE0895C4
:02F80000800086
:040000031000F000F9
:00000001FF
